:020000040800F2
:1000000000A00020A15A00080921000817210008BB
:100010001D210008232100082921000800000000FC
:100020000000000000000000000000002F21000878
:100030003D210008000000004B2100085921000864
:10004000F15A0008F15A0008F15A0008F15A000864
:10005000F15A0008F15A0008F15A0008F15A000854
:10006000F15A0008F15A0008F15A0008F15A000844
:10007000F15A0008F15A0008F15A0008F15A000834
:10008000F15A0008F15A0008F15A0008F15A000824
:10009000F15A0008F15A0008F15A0008F15A000814
:1000A000F15A0008F15A0008F15A0008F15A000804
:1000B000F15A00086521000879210008F15A00086A
:1000C000F15A0008F15A0008F15A0008F15A0008E4
:1000D000F15A0008F15A0008F15A0008F15A0008D4
:1000E0008D210008F15A0008F15A0008A5210008E6
:1000F000B9210008CD210008E1210008F15A0008CB
:10010000000000000000000000000000F15A00089C
:10011000F15A0008F15A0008F15A0008F15A000893
:10012000F15A0008F15A0008F15A0008F15A000883
:10013000F15A0008F15A0008000000000000000019
:10014000F15A0008F15A0008F15A000800000000B6
:10015000000000000000000000000000000000009F
:100160000000000000000000F15A0008F15A0008E9
:10017000F15A00080000000000000000000000002C
:0801800000000000F15A000824
:1001900010B5054C237833B9044B13B10448AFF3C1
:1001A00000800123237010BD180200200000000011
:1001B0002C10010808B5034B1BB103490348AFF3EA
:1001C000008008BD000000001C0200202C10010867
:1001D000034613F8012B002AFBD1181A0138704787
:1001E00001F0FF01102A2BDB10F0070F08D010F8E8
:1001F000013B013A8B422DD010F0070F42B3F6D1EC
:10020000F0B441EA012141EA014122F007047FF004
:1002100000070023F0E80256083C85EA010586EA5B
:10022000010685FA47F5A3FA87F586FA47F6A5FA97
:1002300087F68EB9EED1F0BC01F0FF0102F00702A3
:1002400032B110F8013B013A83EA010313B1F8D14E
:100250000020704701387047002D06BF354603382F
:10026000073815F0010F07D1013015F4807F02BF68
:10027000013015F4C03F0130F0BC0138704700BFB9
:1002800081F0004102E000BF83F0004330B54FEA47
:1002900041044FEA430594EA050F08BF90EA020FB4
:1002A0001FBF54EA000C55EA020C7FEA645C7FEA47
:1002B000655C00F0E2804FEA5454D4EB5555B8BF6A
:1002C0006D420CDD2C4480EA020281EA030382EADB
:1002D000000083EA010180EA020281EA0303362D6D
:1002E00088BF30BD11F0004F4FEA01314FF4801C40
:1002F0004CEA113102D0404261EB410113F0004F52
:100300004FEA03334CEA133302D0524263EB430308
:1003100094EA050F00F0A780A4F10104D5F1200EA6
:100320000DDB02FA0EFC22FA05F2801841F1000101
:1003300003FA0EF2801843FA05F359410EE0A5F1D5
:1003400020050EF1200E012A03FA0EFC28BF4CF006
:10035000020C43FA05F3C01851EBE37101F00045BC
:1003600007D54FF0000EDCF1000C7EEB00006EEBC9
:100370000101B1F5801F1BD3B1F5001F0CD3490853
:100380005FEA30004FEA3C0C04F101044FEA4452AA
:1003900012F5800F80F09A80BCF1004F08BF5FEA31
:1003A000500C50F1000041EB045141EA050130BD11
:1003B0005FEA4C0C404141EB010111F4801FA4F1B4
:1003C0000104E9D191F0000F04BF01460020B1FA09
:1003D00081F308BF2033A3F10B03B3F120020CDA41
:1003E0000C3208DD02F1140CC2F10C0201FA0CF01F
:1003F00021FA02F10CE002F11402D8BFC2F1200C84
:1004000001FA02F120FA0CFCDCBF41EA0C01904039
:10041000E41AA2BF01EB0451294330BD6FEA040482
:100420001F3C1CDA0C340EDC04F11404C4F120026D
:1004300020FA04F001FA02F340EA030021FA04F37F
:1004400045EA030130BDC4F10C04C4F1200220FAD6
:1004500002F001FA04F340EA0300294630BD21FA14
:1004600004F0294630BD94F0000F83F4801306BFDA
:1004700081F480110134013D4EE77FEA645C18BFCE
:100480007FEA655C29D094EA050F08BF90EA020F65
:1004900005D054EA000C04BF1946104630BD91EA5D
:1004A000030F1EBF0021002030BD5FEA545C05D160
:1004B0004000494128BF41F0004130BD14F580049F
:1004C0003CBF01F5801130BD01F0004545F0FE4113
:1004D00041F470014FF0000030BD7FEA645C1ABF48
:1004E000194610467FEA655C1CBF0B46024650EA7F
:1004F000013406BF52EA033591EA030F41F40021AB
:1005000030BD00BF90F0000F04BF0021704730B530
:100510004FF4806404F132044FF000054FF0000105
:1005200050E700BF90F0000F04BF0021704730B5C6
:100530004FF4806404F1320410F0004548BF40429B
:100540004FF000013EE700BF42004FEAE2014FEAF0
:1005500031014FEA02701FBF12F07F4393F07F4FCB
:1005600081F06051704732F07F4208BF704793F0CE
:100570007F4F04BF41F40021704730B54FF46074E1
:1005800001F0004521F000411CE700BF50EA0102E4
:1005900008BF704730B54FF000050AE050EA01028D
:1005A00008BF704730B511F0004502D5404261EBFD
:1005B00041014FF4806404F132045FEA915C3FF43E
:1005C000D8AE4FF003025FEADC0C18BF03325FEADB
:1005D000DC0C18BF033202EBDC02C2F1200300FA8C
:1005E00003FC20FA02F001FA03FE40EA0E0021FAB1
:1005F00002F11444BDE600BF70B54FF0FF0C4CF49F
:10060000E06C1CEA11541DBF1CEA135594EA0C0F50
:1006100095EA0C0F00F0DEF82C4481EA030621EA8B
:100620004C5123EA4C5350EA013518BF52EA0335C6
:1006300041F4801143F4801338D0A0FB02CE4FF078
:100640000005E1FB02E506F00042E0FB03E54FF0A8
:100650000006E1FB03569CF0000F18BF4EF0010EA0
:10066000A4F1FF04B6F5007F64F5407404D25FEA9C
:100670004E0E6D4146EB060642EAC62141EA55514F
:100680004FEAC52040EA5E504FEACE2EB4F1FD0C91
:1006900088BFBCF5E06F1ED8BEF1004F08BF5FEA0F
:1006A000500E50F1000041EB045170BD06F00046C1
:1006B00046EA010140EA020081EA0301B4EB5C046E
:1006C000C2BFD4EB0C0541EA045170BD41F4801166
:1006D0004FF0000E013C00F3AB8014F1360FDEBF8B
:1006E000002001F0004170BDC4F10004203C35DA67
:1006F0000C341BDC04F11404C4F1200500FA05F3EA
:1007000020FA04F001FA05F240EA020001F000428A
:1007100021F0004110EBD37021FA04F642EB060100
:100720005EEA430E08BF20EAD37070BDC4F10C042A
:10073000C4F1200500FA04F320FA05F001FA04F2EE
:1007400040EA020001F0004110EBD37041F10001DA
:100750005EEA430E08BF20EAD37070BDC4F12005E5
:1007600000FA05F24EEA020E20FA04F301FA05F24D
:1007700043EA020321FA04F001F0004121FA04F2F5
:1007800020EA020000EBD3705EEA430E08BF20EAC5
:10079000D37070BD94F0000F0FD101F000464000FF
:1007A00041EB010111F4801F08BF013CF7D041EA81
:1007B000060195F0000F18BF704703F00046520085
:1007C00043EB030313F4801F08BF013DF7D043EA56
:1007D0000603704794EA0C0F0CEA135518BF95EA0C
:1007E0000C0F0CD050EA410618BF52EA4306D1D193
:1007F00081EA030101F000414FF0000070BD50EAB2
:10080000410606BF1046194652EA430619D094EA3B
:100810000C0F02D150EA013613D195EA0C0F05D125
:1008200052EA03361CBF104619460AD181EA030179
:1008300001F0004141F0FE4141F470014FF0000031
:1008400070BD41F0FE4141F4780170BD70B54FF0CC
:10085000FF0C4CF4E06C1CEA11541DBF1CEA13554C
:1008600094EA0C0F95EA0C0F00F0A7F8A4EB05042E
:1008700081EA030E52EA03354FEA013100F0888025
:100880004FEA03334FF0805545EA131343EA1263EE
:100890004FEA022245EA111545EA10654FEA0026A3
:1008A0000EF000419D4208BF964244F1FD0404F55C
:1008B000407402D25B084FEA3202B61A65EB0305B8
:1008C0005B084FEA32024FF480104FF4002CB6EB75
:1008D000020E75EB030E22BFB61A754640EA0C00F5
:1008E0005B084FEA3202B6EB020E75EB030E22BF35
:1008F000B61A754640EA5C005B084FEA3202B6EB76
:10090000020E75EB030E22BFB61A754640EA9C0034
:100910005B084FEA3202B6EB020E75EB030E22BF04
:10092000B61A754640EADC0055EA060E18D04FEAC2
:10093000051545EA16754FEA06164FEAC30343EA62
:1009400052734FEAC2025FEA1C1CC0D111F4801F2F
:100950000BD141EA00014FF000004FF0004CB6E728
:1009600011F4801F04BF01430020B4F1FD0C88BFC7
:10097000BCF5E06F3FF6AFAEB5EB030C04BFB6EBD2
:10098000020C5FEA500C50F1000041EB045170BDC5
:100990000EF0004E4EEA113114EB5C04C2BFD4EBF2
:1009A0000C0541EA045170BD41F480114FF0000E76
:1009B000013C90E645EA060E8DE60CEA135594EAF2
:1009C0000C0F08BF95EA0C0F3FF43BAF94EA0C0FF5
:1009D0000AD150EA01347FF434AF95EA0C0F7FF46A
:1009E00025AF104619462CE795EA0C0F06D152EABE
:1009F00003353FF4FDAE1046194622E750EA4106A2
:100A000018BF52EA43067FF4C5AE50EA41047FF4B2
:100A10000DAF52EA43057FF4EBAE12E74FF0FF3C17
:100A200006E000BF4FF0010C02E000BF4FF0010CE8
:100A30004DF804CD4FEA410C7FEA6C5C4FEA430C61
:100A400018BF7FEA6C5C1BD001B050EA410C0CBFB0
:100A500052EA430C91EA030F02BF90EA020F002012
:100A6000704710F1000F91EA030F58BF994208BF79
:100A700090422CBFD8176FEAE37040F00100704736
:100A80004FEA410C7FEA6C5C02D150EA013C07D18D
:100A90004FEA430C7FEA6C5CD6D152EA033CD3D0D8
:100AA0005DF8040B704700BF8446104662468C46D2
:100AB0001946634600E000BF01B5FFF7B7FF002805
:100AC00048BF10F1000F01BD4DF808EDFFF7F4FF2E
:100AD0000CBF012000205DF808FB00BF4DF808EDB9
:100AE000FFF7EAFF34BF012000205DF808FB00BFDC
:100AF0004DF808EDFFF7E0FF94BF012000205DF8FE
:100B000008FB00BF4DF808EDFFF7CEFF94BF0120B2
:100B100000205DF808FB00BF4DF808EDFFF7C4FFAB
:100B200034BF012000205DF808FB00BF4FEA410CF4
:100B30007FEA6C5C02D150EA013C0AD14FEA430CD7
:100B40007FEA6C5C02D152EA033C02D14FF0000014
:100B500070474FF0010070474FEA410212F5001252
:100B600015D211D56FF47873B3EB625212D94FEAF4
:100B7000C12343F0004343EA505311F0004F23FADE
:100B800002F018BF404270474FF00000704750EA33
:100B9000013005D111F0004008BF6FF000407047F0
:100BA0004FF00000704700BF4A0011D212F500124A
:100BB00011D20DD56FF47873B3EB62520ED44FEAB5
:100BC000C12343F0004343EA505323FA02F0704735
:100BD0004FF00000704750EA013002D14FF0FF3073
:100BE00070474FF0000070474FEA4102B2F1E04316
:100BF00024BFB3F5001CDCF1FE5C0DD901F0004C04
:100C00004FEAC0024CEA5070B2F1004F40EB830053
:100C100008BF20F00100704711F0804F21D113F17F
:100C20003872BCBF01F00040704741F480114FEAB8
:100C30005252C2F11802C2F1200C10FA0CF320FA41
:100C400002F018BF40F001004FEAC1234FEAD3235E
:100C500003FA0CFC40EA0C0023FA02F34FEA4303C8
:100C6000CCE77FEA625307D150EA01331EBF4FF051
:100C7000FE4040F44000704701F0004040F0FE406C
:100C800040F40000704700BF80B582B002AF2C4B2B
:100C90000022C3F830262A4B01225A70284B00222A
:100CA0001A70284B1B6814225A63254B0022C3F884
:100CB0000C2604F0E9FC4FF6FF7004F0D9FD4FF468
:100CC000784301934FF6FF7300931F4B1F4A0A218D
:100CD0000A2004F09DFE01F0F1FC01F04DFD1F2300
:100CE00001934FF6FF730093174B194A1E210A20F8
:100CF00004F08EFE00F0A0F84FF4FC6301934FF671
:100D0000FF730093104B134A32210A2004F080FE37
:100D100002F08EFC104807F0BDFB00F051F90F48BF
:100D200007F0B8FB0E4807F0B5FB054B1B78DBB2AC
:100D3000184600F005FA00F05BF800BFBD4680BD24
:100D400074040020340C00200C000020481001081E
:100D50006010010874100108B40B0020F40B00208F
:100D6000740B002080B500AF104B9B68012B04D1A1
:100D700000F032F90D4B00229A600C4BDB68012B1E
:100D800008D100F051F900F055F900F081F9074B56
:100D90000022DA60054B1B69012B04D100F09AF8A0
:100DA000024B00221A6100BF80BD00BF7404002006
:100DB00080B500AF01F0EAFF00F084FC00F01CFDFC
:100DC000044BD3F834360133024AC2F8343600BF3C
:100DD00080BD00BF7404002080B400AF034B01222B
:100DE0005A6000BFBD465DF8047B70477404002064
:100DF00080B400AF034B0122DA6000BFBD465DF84E
:100E0000047B70477404002080B400AF034B0122C0
:100E10009A6000BFBD465DF8047B704774040020F3
:100E200080B400AF034B01221A6100BFBD465DF8DC
:100E3000047B70477404002080B582B000AF0023AB
:100E40007B600DE07B6801337B600F2004F0B8FE0F
:100E50007B680A2B04DD184B0122C3F8302627E0FB
:100E60000122164916480AF03BFF0346002BE9D140
:100E70000B22144914480AF07BFF0346002B03D0D1
:100E80000D4B0122C3F830260F4910480BF026FC09
:100E900003467B800C490E480BF020FC0A480BF0FF
:100EA00026FB0346002B03D0034B0122C3F8302658
:100EB0000837BD4680BD00BF7404002088100108BB
:100EC0008804002090100108B8060020A010010836
:100ED000D01001082DE9B04FB0B00CAF354BD3F8AE
:100EE0003036012B61D002F0C5F887ED230A02F0FD
:100EF000CFF887ED220A02F0D9F887ED210A02F037
:100F0000E3F887ED200A02F0EDF887ED1F0A02F002
:100F1000F7F887ED1E0AD7F88C00FFF715FB04469B
:100F20000D46D7F88800FFF70FFB80468946D7F8B3
:100F30008400FFF709FB82468B46D7F88000FFF755
:100F400003FBC7E90201F86FFFF7FEFAC7E90001EA
:100F5000B86FFFF7F9FA02460B4607F11000CDE92A
:100F60000A2397ED007B8DED087B97ED027B8DEDDD
:100F7000067BCDE904ABCDE90289CDE900450E4AF7
:100F800064210DF02BF972B607F110030B491846D6
:100F90000BF0A4FB0346A7F8763008480BF0A7FA3D
:100FA000034687F8753062B600E000BF9037BD4653
:100FB000BDE8B08F7404002018110108B8060020A5
:100FC00080B500AF42F2107004F0FAFD00F054FC5E
:100FD00000F002F800BF80BD80B500AF114B03F2F6
:100FE00074431A680F4B03F58E631A6000F046FDD8
:100FF0000C4B03F21C631A680A4B03F5C2631A60B8
:10100000084B03F5C4631A68064B03F214631A60B5
:10101000044B03F224631A68024B03F5C3631A609E
:1010200000BF80BD7404002080B500AF00F026FD35
:1010300000BF80BD80B500AF144B5B68012B1DD194
:10104000124B1B78DBB2012B07D0022B09D0002BEF
:101050000BD10E4B01221A7007E00C4B02221A70C2
:1010600003E00A4B00221A7000BF084B1B78DBB26A
:10107000184600F065F8054B00225A60034B1B78B8
:10108000DBB2184600F022F900BF80BD74040020D6
:1010900080B500AF284B03F58F63D3ED006A264B74
:1010A00003F58E6393ED007AC6EE877A9FED237A7F
:1010B000F4EEC77AF1EE10FA0BDA1F4B03F22C6351
:1010C000D3ED007AB2EE047AF4EEC77AF1EE10FABC
:1010D00002DB00F0D7FA20E0174B03F58F63D3ED66
:1010E000006A154B03F58E6393ED007AC6EE877A9E
:1010F0009FED127AF4EEC77AF1EE10FA0DD50E4B91
:1011000003F22C63D3ED007AB2EE047AF4EEC77AE0
:10111000F1EE10FA01D500F0C5FA074B03F58E6326
:101120001A68054B03F58F631A60034B0022C3F85E
:10113000342600BF80BD00BF74040020CDCC8C3F9E
:1011400080B592B002AF0346FB71FB79012B1ED034
:10115000022B40D0002B00D090E0002004F088FB50
:101160004FF6FF73019300230093464B464A32210A
:10117000142004F04DFC4FF6FF73019300230093FD
:10118000404B424A5021142004F042FC76E00020FB
:1011900004F06EFB4FF47843019300230093394B26
:1011A0003B4A1E21142004F033FC4FF4FC630193EE
:1011B00000230093334B374A3C21142004F028FCD1
:1011C0001F230193002300932E4B334A5A211420EE
:1011D00004F01EFC52E0002004F04AFB07F10C0072
:1011E0002E4B01932E4B00932E4B2F4A32210CF0A5
:1011F000F5FF07F10C024FF47843019300230093AD
:101200002A4B0021052004F003FC07F10C00284BB9
:101210000193284B0093284B234A32210CF0DEFF28
:1012200007F10C024FF4FC630193002300931F4B62
:101230003321052004F0ECFB07F10C001F4B019358
:101240001F4B00931F4B184A32210CF0C7FF07F1C8
:101250000C021F23019300230093144B66210520E9
:1012600004F0D6FB4FF6E0730193002300930F4B7D
:10127000154A9921052004F0CBFB00BF00BF403781
:10128000BD4680BD1400002050110108581101080E
:10129000601101086411010868110108801101083A
:1012A000881101086C110108741101080400002064
:1012B00098110108A011010890110108B01101084E
:1012C000B8110108A8110108C01101082DE9B043A7
:1012D000A8B006AF0346FB71FB79012B00F09280AA
:1012E000022B00F0F380002B00D0BBE1714B03F523
:1012F0008F63D3ED006A6F4B03F58E6393ED007A35
:10130000C6EE877AC7ED167AD7ED167A9FED6A7A20
:10131000F4EEC77AF1EE10FA04D54FF4FC63A7F8A7
:10132000863011E0D7ED167A9FED647AF4EEC77A35
:10133000F1EE10FA04D54FF6E073A7F8863003E01B
:101340004FF47843A7F88630B86DFFF7FDF80346F1
:101350000C4607F14C00CDE90034594A0A210CF043
:101360003DFF07F14C02B7F886300193002300934C
:10137000544B32218B2004F04BFB4E4B03F22C6379
:10138000D3ED007AB2EE047AF4EEC77AF1EE10FAF9
:1013900004D54FF4FC63A7F8863014E0454B03F204
:1013A0002C63D3ED007AB3EE047AF4EEC77AF1EE53
:1013B00010FA04D54FF6E073A7F8863003E04FF437
:1013C0007843A7F886303B4B03F22C631B68184622
:1013D000FFF7BAF803460C4607F14C00CDE900349C
:1013E000374A0A210CF0FAFE07F14C02B7F88630B2
:1013F000019300230093334B50218B2004F008FB12
:1014000000BF2FE12B4B03F21C631B681846FFF74C
:101410009BF803460C4607F14000CDE900342A4A08
:101420000A210CF0DBFE07F140024FF478430193F0
:1014300000230093234B1E21472004F0E9FA1D4BA3
:1014400003F5C4631B681846FFF77EF803460C4695
:1014500007F14000CDE900341B4A0A210CF0BEFE22
:1014600007F140024FF4FC63019300230093154BF6
:101470003C21472004F0CCFA0E4B03F224631B6896
:101480001846FFF761F803460C4607F14000CDE926
:1014900000340D4A0A210CF0A1FE07F140021F237F
:1014A000019300230093074B5A21472004F0B0FA20
:1014B00000BFD7E074040020CDCC8C3F9A99993FAF
:1014C000CC11010814000020D411010801F0D2FD54
:1014D00087ED200A01F0DCFD87ED1F0A01F0E6FD33
:1014E00087ED1E0AD7F88000FFF72EF804460D4658
:1014F000F86FFFF729F880468946B86FFFF724F8A0
:1015000002460B4607F10C00CDE90423CDE9028920
:10151000CDE90045564A32210CF060FE07F10C027D
:101520004FF47843019300230093524B112105207F
:1015300004F06EFA01F0C8FD87ED1D0A01F0D2FD3E
:1015400087ED1C0A01F0DCFD87ED1B0A786FFEF7C2
:10155000FBFF04460D46386FFEF7F6FF80468946CE
:10156000F86EFEF7F1FF02460B4607F10C00CDE9DD
:101570000423CDE90289CDE900453D4A32210CF032
:101580002DFE07F10C024FF4FC630193002300933E
:10159000384B4421052004F03BFA01F0BFFD87EDF4
:1015A0001A0A01F0C9FD87ED190A01F0D3FD87ED94
:1015B000180AB86EFEF7C8FF04460D46786EFEF7AF
:1015C000C3FF80468946386EFEF7BEFF02460B46D3
:1015D00007F10C00CDE90423CDE90289CDE90045EE
:1015E000234A32210CF0FAFD07F10C021F2301936C
:1015F000002300931F4B7721052004F009FA01F026
:10160000B7FD87ED170AF86DFEF79EFF03460C46FF
:1016100007F10C00CDE90034174A32210CF0DEFD51
:1016200007F10C024FF6E073019300230093114B76
:10163000AA21052004F0ECF9104BD3F8343607F159
:101640000C000F4A32210CF0C9FD07F10C024FF6D5
:10165000FF73019300230093064BDD21052004F066
:10166000D7F900BF00BF8837BD46BDE8B08300BFD3
:10167000DC11010804000020F011010874040020AE
:10168000F811010880B500AF0021044806F062FFA0
:10169000034B00225A7000BF80BD00BF340C0020F5
:1016A0007404002080B500AF0021044806F0AAFFB2
:1016B000034B01225A7000BF80BD00BF340C0020D4
:1016C0007404002090B585B000AF01F05FFD0346C3
:1016D000FB6001F067FD0346BB6001F06FFD034650
:1016E0007B60FB68FA6802FB03F2BB68B96801FB28
:1016F00003F31A447B68796801FB03F3134407EE94
:10170000903AF8EEE77A17EE900AFEF71DFF0346CF
:101710000C4644EC103B0BF03BF954EC103B1846E4
:101720002146FFF761FA03463B60324BD3F80C3693
:10173000304A03F58F739B0013440433D3ED007AD2
:101740002C4B03F2744393ED007A77EE677A294BC2
:1017500003F27443C3ED007A264BD3F80C36254AC6
:1017600003F58F739B00134404333A681A60214BCE
:10177000D3F80C361F4A03F58F739B0013440433D0
:1017800093ED007A1B4B03F27443D3ED007A77EEAE
:10179000277A184B03F27443C3ED007A154BD3F844
:1017A0000C360133134AC2F80C36124BD3F80C3600
:1017B000642B03D10F4B0022C3F80C260D4B03F210
:1017C000744393ED007A0B4B03F58F63D3ED007AEE
:1017D000B4EEE77AF1EE10FA00DC07E0054B03F215
:1017E00074431A68034B03F58F631A6000BF143704
:1017F000BD4690BD7404002080B58AB000AF01F0F2
:1018000063FC87ED090A01F06DFC87ED080A01F021
:1018100077FC87ED070A01F02DFC87ED060A01F041
:1018200037FC87ED050A01F041FC87ED040A01F061
:1018300075FC87ED030A01F07FFC87ED020A01F0D9
:1018400089FC87ED010A97ED014AD7ED023A97ED41
:10185000033AD7ED042A97ED052AD7ED061A97ED3E
:10186000071AD7ED080A97ED090A01F019FF00BF22
:101870002837BD4680BD0000B0B586B000AF7C4BB8
:1018800093ED007A7A4BD3ED017A27EE277A784BE5
:10189000D3ED026A764BD3ED037A66EEA77A77EE44
:1018A000277A77EEA77AC7ED057A714B93ED017A27
:1018B0006F4BD3ED017A27EE277A6D4BD3ED026A99
:1018C0006B4BD3ED027A66EEA77A77EE277A77EE46
:1018D000A77AB7EE007A77EE677AC7ED047A78696F
:1018E000FEF732FE04460D463869FEF72DFE02462D
:1018F0000B4643EC112B45EC104B0BF047F851EC29
:10190000100B59A3D3E90023FEF776FE03460C46DD
:1019100018462146FFF768F90246564B03F21C634E
:101920001A60534B93ED007A514BD3ED027A27EEB8
:10193000277A4F4BD3ED036A4D4BD3ED017A66EE18
:10194000A77A77EE677A77EEA77AC7ED037AD7EDB5
:10195000037AB7EE007AF4EEC77AF1EE10FA02DD00
:101960004FF07E5300E0FB68FB60D7ED037ABFEEDB
:10197000007AF4EEC77AF1EE10FA01D53E4B00E0A2
:10198000FB68FB60F868FEF7DFFD03460C4644EC9D
:10199000103B0AF0A3FF51EC100B33A3D3E9002353
:1019A000FEF72AFE03460C4618462146FFF71CF9AF
:1019B0000246304B03F5C4631A602D4B93ED007A59
:1019C0002B4BD3ED037A27EE277A294BD3ED016A0F
:1019D000274BD3ED027A66EEA77A77EE277A77EE79
:1019E000A77AC7ED027A224B93ED027A204BD3ED12
:1019F000027A27EE277A1E4BD3ED036A1C4BD3EDF8
:101A0000037A66EEA77A77EE277A77EEA77AB7EEB3
:101A1000007A77EE677AC7ED017AB868FEF794FD31
:101A200004460D467868FEF78FFD02460B4643ECF0
:101A3000112B45EC104B0AF0A9FF51EC100B0AA337
:101A4000D3E90023FEF7D8FD03460C46184621468D
:101A5000FFF7CAF80246074B03F224631A6000BF7F
:101A60001837BD46B0BD00BF00000020DCA54C40CB
:101A7000D80D002074040020000080BF90B587B00E
:101A800000AFFFF7F9FE3D4B03F21C631B687B615F
:101A90003A4B03F5C4631B683B61384B03F5C263E3
:101AA0001B68FB60354B03F214631B68BB6097ED4A
:101AB000037AD7ED057A77EE677AF0EEE77AC7ED2D
:101AC000017A97ED027AD7ED047A77EE677AF0EE35
:101AD000E77AC7ED007AD7ED017A9FED297AF4EE27
:101AE000C77AF1EE10FA13DD7868FEF72DFD034694
:101AF0000C461A4623464FF000002249FEF7C4FB6D
:101B000003460C4618462146FFF76EF8034600E0F0
:101B10007B687B60D7ED007A9FED1B7AF4EEC77A85
:101B2000F1EE10FA13DD3868FEF70EFD03460C46A1
:101B30001A4623464FF000001449FEF7A5FB034662
:101B40000C4618462146FFF74FF8034600E03B6875
:101B50003B6097ED017AD7ED007AB4EEE77AF1EECB
:101B600010FA01DD7B6800E03B68044A02F22C6257
:101B7000136000BF1C37BD4690BD00BF7404002039
:101B800000003443008076400000B442008066408C
:101B900080B58AB000AF07F1140300221A605A60C2
:101BA0009A60DA601A61584B5B69574A43F4002324
:101BB0005361554B5B6903F400233B613B69524B16
:101BC0005B69514A43F4800353614F4B5B6903F4F3
:101BD0008003FB60FB684C4B5B694B4A43F400336A
:101BE0005361494B5B6903F40033BB60BB68464BF0
:101BF0005B69454A43F480235361434B5B6903F4BB
:101C000080237B607B6800224FF400513F4804F042
:101C100085FA01224FF440714FF0904004F07EFAB3
:101C2000002250213A4804F079FA4FF400537B61C6
:101C30000123BB610023FB6100233B6207F1140316
:101C40001946324804F0F0F84FF440437B61032317
:101C5000BB610023FB6107F1140319462B4804F014
:101C6000E3F849F6FE437B610323BB610023FB617C
:101C700007F1140319464FF0904004F0D5F841F2F3
:101C800087337B610323BB610023FB6107F11403EE
:101C900019461F4804F0C8F84FF440637B611D4BA0
:101CA000BB610023FB6107F114031946184804F0D7
:101CB000BBF84FF440737B610123BB610023FB61E0
:101CC00003233B6207F1140319464FF0904004F0E0
:101CD000ABF850237B610123BB610023FB6103232D
:101CE0003B6207F114031946094804F09DF80022ED
:101CF0000121282004F061F8282004F07AF800BFC0
:101D00002837BD4680BD00BF0010024000080048D3
:101D1000000400480000211080B500AF03F0EAFE87
:101D200000F015F8FFF734FF00F0F6F800F0A4FA21
:101D300000F0B4F800F016FB07F0B0FC00F060FB18
:101D400000F0ACFBFEF7A0FFFFF70CF8FCE780B556
:101D50009EB000AF07F150032822002118460BF077
:101D6000F1FB07F13C0300221A605A609A60DA60C6
:101D70001A613B463C22002118460BF0E3FB01238D
:101D80003B654FF480337B650023BB6501233B66D5
:101D90000223FB664FF480333B674FF4E0137B670D
:101DA00007F15003184604F003FA0346002B01D054
:101DB00000F06CF80F23FB6302233B6400237B6479
:101DC0004FF48063BB640023FB6407F13C030221F2
:101DD000184605F0F5F80346002B01D000F056F840
:101DE0004FF400533B6000237B633B46184605F0ED
:101DF000CDFA0346002B01D000F048F800BF783739
:101E0000BD4680BD80B582B000AF0346FB80FB8835
:101E1000B3F5806F03D0B3F5006F03D005E0FEF794
:101E2000DBFF02E0FEF7F0FF00BF00BF0837BD4652
:101E300080BD000080B582B000AF78607B681B6811
:101E40000E4A934202D1FEF7B3FF13E07B681B6892
:101E50000B4A934202D1FEF7CBFF0BE07B681B6875
:101E6000084A934206D1FEF7DBFF4FF400510648C3
:101E700004F06CF900BF0837BD4680BD0008004083
:101E800000040040003401400008004880B400AF66
:101E900000BFBD465DF8047B7047000080B500AF11
:101EA0001B4B1C4A1A601A4B4FF482725A60184B33
:101EB00000229A60164B4FF4E062DA60144B022263
:101EC0001A61134B01225A61114B4FF400729A614F
:101ED0000F4B1022DA610E4B00221A620C4B0022CB
:101EE0005A620B4B00229A62094B0722DA62084BB6
:101EF00000221A63064B00225A63054805F0F6FBE0
:101F00000346002B01D0FFF7C1FF00BF80BD00BF1B
:101F1000100B00200030014080B500AF1B4B1C4A65
:101F20001A601A4B4FF482725A60184B00229A6062
:101F3000164B4FF4E062DA60144B02221A61134B25
:101F400001225A61114B4FF400729A610F4B00222B
:101F5000DA610E4B00221A620C4B00225A620B4BC4
:101F600000229A62094B0722DA62084B00221A63A8
:101F7000064B00225A63054805F0B8FB0346002BC8
:101F800001D0FFF783FF00BF80BD00BFAC0A002077
:101F90000038004080B58CB000AF786007F11C03BA
:101FA00000221A605A609A60DA601A617B681B68C6
:101FB0002E4A934228D12E4B9B692D4A43F48053DD
:101FC00093612B4B9B6903F48053BB61BB69284B26
:101FD0005B69274A43F480235361254B5B6903F413
:101FE00080237B617B692823FB6102233B62002302
:101FF0007B620323BB620523FB6207F11C031946C6
:102000001C4803F011FF2DE07B681B681A4A9342BD
:1020100028D1174BDB69164A43F48043D361144B34
:10202000DB6903F480433B613B69114B5B69104AF8
:1020300043F4802353610E4B5B6903F48023FB6000
:10204000FB684FF46043FB6102233B6200237B6229
:102050000323BB620523FB6207F11C0319460548F5
:1020600003F0E2FE00BF3037BD4680BD00300140C6
:1020700000100240000400480038004080B582B0E3
:1020800000AF204B9B691F4A43F0010393611D4B36
:102090009B6903F001037B607B681A4BDB69194A7B
:1020A00043F08053D361174BDB6903F080533B60EF
:1020B0003B68002202216FF00B0003F07EFE00223D
:1020C00002216FF00A0003F078FE002202216FF077
:1020D000090003F072FE002202216FF0040003F0F9
:1020E0006CFE002202216FF0030003F066FE002266
:1020F00002216FF0010003F060FE00BF0837BD460B
:1021000080BD00BF0010024080B400AF00BFBD46DC
:102110005DF8047B704780B400AFFEE780B400AF89
:10212000FEE780B400AFFEE780B400AFFEE780B406
:1021300000AF00BFBD465DF8047B704780B400AFC0
:1021400000BFBD465DF8047B704780B400AF00BFA0
:10215000BD465DF8047B704780B500AF03F010FD0D
:1021600000BF80BD80B500AF024806F0B9FA00BFDD
:1021700080BD00BFF40B002080B500AF024806F020
:10218000AFFA00BF80BD00BFB40B002080B500AF28
:102190004FF4806003F0F4FF4FF4006003F0F0FFB1
:1021A00000BF80BD80B500AF024806F099FA00BFBD
:1021B00080BD00BF740B002080B500AF024806F060
:1021C0008FFA00BF80BD00BF740B002080B500AF48
:1021D000024806F085FA00BF80BD00BF740B0020E6
:1021E00080B500AF024806F07BFA00BF80BD00BF9B
:1021F000740B002080B584B000AF7860114B1B6871
:10220000002B02D10F4B104A1A600E4B1B68FB606B
:102210000C4B1A687B6813446A46934207D90BF04B
:1022200067F902460C2313604FF0FF3306E0054BBD
:102230001A687B681344034A1360FB68184610371A
:10224000BD4680BD340200207812002080B400AF6B
:10225000084BD3F88830074A43F47003C2F888303B
:10226000044B4FF000629A6000BFBD465DF8047BEE
:10227000704700BF00ED00E080B58EB000AF07F101
:10228000280300221A605A609A60DA6007F11C0382
:1022900000221A605A609A603B4600221A605A6017
:1022A0009A60DA601A615A619A612D4B4FF0804250
:1022B0001A602B4B4FF411725A60294B00229A601E
:1022C000274BFF22DA60264B00221A61244B0022A2
:1022D0009A61234806F0B2F80346002B01D0FFF7BD
:1022E000D5FD4FF48053BB6207F1280319461C4803
:1022F00006F02EFC0346002B01D0FFF7C7FD18485F
:1023000006F0F2F80346002B01D0FFF7BFFD0023D3
:10231000FB6100237B6207F11C031946104807F09C
:102320001FF90346002B01D0FFF7B0FD60233B608F
:1023300000237B600023BB6000233B613B460022FF
:102340001946074806F0ECFA0346002B01D0FFF7C8
:102350009DFD034800F07EF900BF3837BD4680BDC3
:10236000340C002080B588B000AF07F110030022C4
:102370001A605A609A60DA603B1D00221A605A6047
:102380009A601D4B1D4A1A601B4B48F69F425A60CB
:10239000194B00229A60184B6322DA60164B002218
:1023A0001A61154B00229A61134806F047F803465C
:1023B000002B01D0FFF76AFD4FF480533B6107F11A
:1023C000100319460C4806F0C3FB0346002B01D04E
:1023D000FFF75CFD00237B600023FB603B1D19467B
:1023E000054807F0BDF80346002B01D0FFF74EFD6E
:1023F00000BF2037BD4680BDF40B00200004004024
:1024000080B588B000AF07F1100300221A605A604F
:102410009A60DA603B1D00221A605A609A601D4B78
:102420001D4A1A601B4B48F69F425A60194B002206
:102430009A60184B0322DA60164B00221A61154B82
:1024400000229A61134805F0F9FF0346002B01D0E2
:10245000FFF71CFD4FF480533B6107F11003194651
:102460000C4806F075FB0346002B01D0FFF70EFD6C
:1024700000237B600023FB603B1D1946054807F0E5
:102480006FF80346002B01D0FFF700FD00BF203797
:10249000BD4680BDB40B00200008004080B588B068
:1024A00000AF07F1100300221A605A609A60DA60E8
:1024B0003B1D00221A605A609A60204B204A1A6025
:1024C0001E4B48F69F425A601C4B00229A601B4BE1
:1024D00040F2CF72DA60194B00221A61174B0022CA
:1024E0005A61164B00229A61144805F0A7FF034673
:1024F000002B01D0FFF7CAFC4FF480533B6107F17A
:10250000100319460D4806F023FB0346002B01D0AB
:10251000FFF7BCFC00237B600023BB600023FB6053
:102520003B1D1946054807F01BF80346002B01D058
:10253000FFF7ACFC00BF2037BD4680BD740B002008
:102540000034014080B586B000AF78607B681B68BE
:10255000B3F1804F0CD13B4BDB693A4A43F00103A6
:10256000D361384BDB6903F001037B617B6964E075
:102570007B681B68344A934214D1324BDB69314A81
:1025800043F00203D3612F4BDB6903F002033B618D
:102590003B69002200211D2003F00FFC1D2003F0E9
:1025A00028FC4AE07B681B68284A934214D1254BDB
:1025B000DB69244A43F00403D361224BDB6903F057
:1025C0000403FB60FB68002200211E2003F0F5FBE2
:1025D0001E2003F00EFC30E07B681B681C4A93420F
:1025E0002BD1184B9B69174A43F400539361154B49
:1025F0009B6903F40053BB60BB68002200212B20C1
:1026000003F0DBFB2B2003F0F4FB002200212C2045
:1026100003F0D3FB2C2003F0ECFB002200212D2043
:1026200003F0CBFB2D2003F0E4FB002200212E2041
:1026300003F0C3FB2E2003F0DCFB00BF1837BD46C0
:1026400080BD00BF001002400004004000080040B0
:102650000034014080B588B000AF786007F10C030A
:1026600000221A605A609A60DA601A617B681B68FF
:10267000B3F1804F1CD1104B5B690F4A43F4003318
:1026800053610D4B5B6903F40033BB60BB680123EE
:10269000FB6002233B6100237B610023BB610123BC
:1026A000FB6107F10C0319464FF0904003F0BCFBAF
:1026B00000BF2037BD4680BD0010024080B400AF8F
:1026C000254B80221A70244B244A5A60224B244AFC
:1026D0009A60214B234ADA671F4B234AC3F88020B4
:1026E0001D4B6422C3F888201B4B4FF07E52C3F869
:1026F000F420194B4FF07E52C3F8F820164B4FF0E0
:102700007E52C3F8FC20144B4FF47A72A3F80021D8
:10271000114B164AC3F804210F4B082283F80821F5
:102720000D4B4FF07E52C3F844210B4B4FF07E52BD
:10273000C3F84821084B4FF07E52C3F84C21064B9A
:102740000B4AC3F85421044B0A4AC3F8582100BF6E
:10275000BD465DF8047B7047780C002040420F00B6
:1027600060E316005CEFA6430000A8419A99993EE9
:1027700079E91C4135FA8E3C80B500AF01216B2010
:1027800000F03AFE0346002B02DA4FF0FF335EE121
:1027900020216A2000F030FE0346002B02DA6FF0A1
:1027A000010354E10D21242000F026FE0346002BF6
:1027B00002DA6FF002034AE100210A2000F07CFEF9
:1027C00080216B2000F018FE012003F0F9F90121AF
:1027D0000B2000F071FE01216B2000F00DFE03467E
:1027E000002B02DA6FF0030331E100F0F5FE03463F
:1027F000712B07D000F0F0FE0346732B02D06FF070
:10280000040324E100216C2000F0F6FD0346002BB8
:1028100002DA6FF005031AE118211C2000F0ECFD2C
:102820000346002B02DA6FF0060310E1894BD3ED6B
:10283000557AB3EE007A27EE877ADFED876AC7EE26
:10284000267A844BC3ED1A7A824B032283F88420C4
:1028500018211B2000F0D0FD0346002B02DA6FF098
:102860000703F4E07B4BD3ED567A9FED7C7A67EE5D
:10287000877A784BC3ED1B7A764B032283F8852049
:1028800001211D2000F0B8FD0346002B02DA6FF095
:102890000803DCE001211A2000F0AEFD0346002B06
:1028A00002DA6FF00903D2E06A4B002283F8862037
:1028B0000021192000F0A0FD0346002B02DA6FF082
:1028C0000A03C4E0634B002283F8872020216A209A
:1028D00000F092FD0346002B02DA6FF00B03B6E026
:1028E0000D21242000F088FD0346002B02DA6FF052
:1028F0000C03ACE000F086FE0346482B02D06FF0DC
:102900000D03A4E000210A2000F0D6FD0346002BB1
:1029100002DA6FF00E039AE00F210A2000F0CCFDDE
:102920000346002B02DA6FF00F0390E0642003F0FF
:1029300047F94B4A0321102000F00EFE454B1B7C4B
:1029400007EE903AF8EE677A9FED467A37EEC77A4F
:10295000DFED456AC7EE267AB7EE007A77EE877A22
:102960009FED427A27EE877ADFED416AC7EE267A3D
:10297000384BC3ED1C7A374B5B7C07EE903AF8EE90
:10298000677A9FED387A37EEC77ADFED376AC7EEA0
:10299000267AB7EE007A77EE877A9FED347A27EEC3
:1029A000877ADFED336AC7EE267A2A4BC3ED1D7AAC
:1029B000284B9B7C07EE903AF8EE677A9FED297AD8
:1029C00037EEC77ADFED286AC7EE267AB7EE007ACF
:1029D00077EE877A9FED257A27EE877ADFED246AF6
:1029E000C7EE267A1B4BC3ED1E7A00210A2000F0A9
:1029F00063FD0346002B02DA6FF0100327E064202A
:102A000003F0DEF816210A2000F056FD0346002BE5
:102A100002DA6FF011031AE0642003F0D1F801210B
:102A20006B2000F0E9FC0346002B02DA6FF0120382
:102A30000DE00B4A0721032000F08EFD00F0CAFBD9
:102A40000346002B02DA6FF0130300E0012318465F
:102A500080BD00BF780C002000FFFF46FA007A3DE1
:102A6000880C00200000004300008043008099454E
:102A700000F0FF4680B582B000AF0346FB71FB79E2
:102A8000032B5FD801A252F823F000BF9D2A000853
:102A9000C72A0008F12A00081B2B000800211B2070
:102AA00000F0AAFC0346002B02DA4FF0FF334EE0A1
:102AB000294BD3ED567A9FED297A67EE877A264B1C
:102AC000C3ED1B7A3EE008211B2000F095FC034675
:102AD000002B02DA4FF0FF3339E01F4BD3ED567A6B
:102AE0009FED1F7A67EE877A1B4BC3ED1B7A29E0B7
:102AF00010211B2000F080FC0346002B02DA4FF06F
:102B0000FF3324E0144BD3ED567A9FED167A67EE2F
:102B1000877A114BC3ED1B7A14E018211B2000F0BB
:102B20006BFC0346002B02DA4FF0FF330FE00A4B39
:102B3000D3ED567A9FED0C7A67EE877A064BC3ED9C
:102B40001B7A00BF044AFB7982F8853001231846BE
:102B50000837BD4680BD00BF780C0020FA00FA3B64
:102B6000FA007A3CFA00FA3CFA007A3D80B582B06D
:102B700000AF0346FB71FB79052B00F2928001A2A6
:102B800052F823F09D2B0008C52B0008ED2B000800
:102B9000152C00083D2C0008652C000801211D2083
:102BA00000F02AFC0346002B02DA4FF0FF337DE0F1
:102BB00001211A2000F020FC0346002B66DA6FF09A
:102BC000010373E002211D2000F016FC0346002BD8
:102BD00002DA4FF0FF3369E002211A2000F00CFC0A
:102BE0000346002B54DA6FF001035FE003211D2040
:102BF00000F002FC0346002B02DA4FF0FF3355E0F1
:102C000003211A2000F0F8FB0346002B42DA6FF094
:102C100001034BE004211D2000F0EEFB0346002BD6
:102C200002DA4FF0FF3341E004211A2000F0E4FB08
:102C30000346002B30DA6FF0010337E005211D2039
:102C400000F0DAFB0346002B02DA4FF0FF332DE0F1
:102C500005211A2000F0D0FB0346002B1EDA6FF08E
:102C6000010323E006211D2000F0C6FB0346002BD4
:102C700002DA4FF0FF3319E006211A2000F0BCFB06
:102C80000346002B0CDA6FF001030FE000BF08E0F1
:102C900000BF06E000BF04E000BF02E000BF00E0AC
:102CA00000BF044AFB7982F88630012318460837B2
:102CB000BD4680BD780C002080B582B000AF0346D1
:102CC000FB711321192000F097FB0346002B02DA59
:102CD0004FF0FF3351E0FB79092B1FD900210A2067
:102CE00000F0EAFB0346002B02DA6FF0010344E038
:102CF000642002F065FF12210A2000F0DDFB03468C
:102D0000002B02DA6FF0020337E0642002F058FF74
:102D10001C4A0721032000F01FFC1EE000210A20AE
:102D200000F0CAFB0346002B02DA6FF0010324E037
:102D3000642002F045FF16210A2000F0BDFB034687
:102D4000002B02DA6FF0020317E0642002F038FF74
:102D50000C4A0721032000F0FFFBFB7919461920DC
:102D600000F04AFB0346002B02DA6FF0030304E095
:102D7000054AFB7982F88730012318460837BD469B
:102D800080BD00BF880C0020780C002080B500AF0B
:102D9000B64A15213B2000F05BFB0346002B02DA0C
:102DA0004FF0FF335FE1B24B1B7C1B021AB2B04BFA
:102DB0005B7C1BB213431AB2AD4BDA84AC4B9B7CE9
:102DC0001B021AB2AA4BDB7C1BB213431AB2A84BEC
:102DD0001A85A74B1B7D1B021AB2A54B5B7D1BB24C
:102DE00013431AB2A24B5A85A14B9B7D1B021AB208
:102DF0009F4BDB7D1BB213431AB29D4B1A879C4B32
:102E00001B7E1B021AB29A4B5B7E1BB213431AB293
:102E1000974B9A85964B9B7E1B021AB2944BDB7E96
:102E20001BB213431AB2924BDA85914B1B7F1B02E4
:102E30001AB28F4B5B7F1BB213431AB28C4B1A86AC
:102E40008B4BDB7F1B021AB2894B9B7F1BB2134358
:102E50001AB2874B5A86864B93F821301B021AB25E
:102E6000834B93F820301BB213431AB2804B9A86DF
:102E70007F4B93F823301B021AB27D4B93F822301C
:102E80001BB213431AB27A4BDA86794BB3F9283066
:102E900007EE903AB8EEE77A754BD3ED1A7A27EE43
:102EA000277A734BD3ED3A7A37EE677A704BD3EDCE
:102EB0003D7A67EE277A6E4BC3ED0F7A6C4BB3F910
:102EC000263007EE903AB8EEE77A694BD3ED1A7ADE
:102ED00027EE277A664BD3ED3B7A37EE677A644B61
:102EE000D3ED3E7A67EE277A614BC3ED107A604BE3
:102EF000B3F92A305B4207EE903AB8EEE77A5C4BC2
:102F0000D3ED1A7A27EE277A594BD3ED3C7A37EE78
:102F1000677A574BD3ED3F7A67EE277A544BC3ED70
:102F2000117A534BB3F92E3007EE903AB8EEE77AA8
:102F30004F4BD3ED1B7A27EE277A4D4BD3ED2A7AF0
:102F400077EE677A4A4BC3ED127A494BB3F92C30CE
:102F500007EE903AB8EEE77A454BD3ED1B7A27EEB1
:102F6000277A434BD3ED2B7A77EE677A404BC3ED4C
:102F7000137A3F4BB3F930305B4207EE903AB8EE2C
:102F8000E77A3B4BD3ED1B7A27EE277A384BD3ED0C
:102F90002C7A77EE677A364BC3ED147A344BB3F95B
:102FA000323007EE903AB8EEE77A314BD3ED1C7A27
:102FB00027EE277A2E4BD3ED4E7A37EE677A2C4BDD
:102FC000D3ED517A67EE277A294BC3ED157A284B5A
:102FD000B3F9343007EE903AB8EEE77A244BD3EDEC
:102FE0001D7A27EE277A224BD3ED4F7A37EE677A98
:102FF0001F4BD3ED527A67EE277A1D4BC3ED167A3D
:103000001B4BB3F9363007EE903AB8EEE77A184B1F
:10301000D3ED1E7A27EE277A154BD3ED507A37EE93
:10302000677A134BD3ED537A67EE277A104BC3EDD3
:10303000177A0F4BB3F9383007EE903AB8EEE77ACB
:103040000B4BD3ED207A77EE676A094BD3ED1F7AED
:1030500086EEA77A064BD3ED207A77EE277A044BDB
:10306000C3ED187A0123184680BD00BF880C0020EC
:10307000780C002080B400AF044BDB6B07EE903A75
:10308000B0EE670ABD465DF8047B7047780C0020FF
:1030900080B400AF044B1B6C07EE903AB0EE670AA9
:1030A000BD465DF8047B7047780C002080B400AF0B
:1030B000044B5B6C07EE903AB0EE670ABD465DF8D4
:1030C000047B7047780C002080B400AF044B9B6CED
:1030D00007EE903AB0EE670ABD465DF8047B704794
:1030E000780C002080B400AF044BDB6C07EE903A04
:1030F000B0EE670ABD465DF8047B7047780C00208F
:1031000080B400AF044B1B6D07EE903AB0EE670A37
:10311000BD465DF8047B7047780C002080B400AF9A
:10312000044B5B6D07EE903AB0EE670ABD465DF862
:10313000047B7047780C002080B400AF044B9B6D7B
:1031400007EE903AB0EE670ABD465DF8047B704723
:10315000780C002080B400AF044BDB6D07EE903A92
:10316000B0EE670ABD465DF8047B7047780C00201E
:1031700080B400AF044B1B6E07EE903AB0EE670AC6
:10318000BD465DF8047B7047780C002080B400AF2A
:10319000034BB3F926301846BD465DF8047B7047F3
:1031A000780C002080B400AF034BB3F928301846E8
:1031B000BD465DF8047B7047780C002080B400AFFA
:1031C000034BB3F92A301846BD465DF8047B7047BF
:1031D000780C0020B0B582B000AF0020FFF74AFCA9
:1031E0000346002B02DA4FF0FF33FFE00320FFF726
:1031F000BDFC0346002B02DA6FF00103F6E013205A
:10320000FFF75AFD0346002B02DA6FF00203EDE0F0
:10321000784A4FF000034FF00004C2E92434754AA5
:103220004FF000034FF00004C2E92634714A4FF01A
:1032300000034FF00004C2E9283400237B6088E0DB
:10324000FFF7A4FDFFF740FFB0EE407A694BD3EDE6
:103250002A7A77EE277A17EE900AFDF775F9044679
:103260000D46644BD3F888301846FDF74BF90246FB
:103270000B4620462946FDF7E9FA03460C46184658
:1032800021465C4BD3E924341A462346FCF7FEFF63
:1032900003460C46574AC2E92434FFF723FFB0EE39
:1032A000407A544BD3ED2B7A77EE277A17EE900ABB
:1032B000FDF74AF904460D464E4BD3F888301846C0
:1032C000FDF720F902460B4620462946FDF7BEFAD7
:1032D00003460C4618462146464BD3E926341A4687
:1032E0002346FCF7D3FF03460C46424AC2E9263484
:1032F000FFF706FFB0EE407A3E4BD3ED2C7A77EE27
:10330000277A17EE900AFDF71FF904460D46394B50
:10331000D3F888301846FDF7F5F802460B462046EC
:103320002946FDF793FA03460C4618462146314BD1
:10333000D3E928341A462346FCF7A8FF03460C4677
:103340002C4AC2E92834022002F03AFC7B6801339F
:103350007B60284BD3F888307A689A42FFF470AFCC
:10336000244BD3E9243418462146FDF73DFC0246A0
:10337000204BC3F8A8201F4BD3E92634184621461A
:10338000FDF732FC02461B4BC3F8AC20194BD3E9C6
:10339000283418462146FDF727FC0246154BC3F892
:1033A000B020144B93F885301846FFF763FB0346B3
:1033B000002B02DA6FF0030318E00E4B93F886300F
:1033C0001846FFF7D3FB0346002B02DA6FF0040325
:1033D0000CE0084B93F887301846FFF76DFC034666
:1033E000002B02DA6FF0050300E0012318460837CE
:1033F000BD46B0BD780C002080B582B000AF03465A
:103400000A46FB711346BB7100224FF480714FF0E6
:10341000904002F083FEF91D0A2301220B4804F0BC
:10342000F7F9B91D0A230122084804F0F1F9012235
:103430004FF480714FF0904002F070FE0A2002F0CD
:10344000BFFB012318460837BD4680BDAC0A0020EB
:1034500080B584B000AF03463A60FB710B46BB7188
:1034600000224FF480714FF0904002F057FE104B55
:103470001A78FB791343DBB2FB7307F10F010A23C0
:1034800001220C4804F0C4F9BB799AB20A233968C6
:10349000084804F023FB01224FF480714FF0904064
:1034A00002F03CFE012318461037BD4680BD00BF28
:1034B000780C0020AC0A002080B582B000AF034633
:1034C0000A46FB711346BB710C212520FFF794FFC0
:1034D0000346002B02DA4FF0FF3334E0FB79194644
:1034E0002620FFF789FF0346002B02DA6FF0010365
:1034F00029E0BB7919466320FFF77EFF0346002BC6
:1035000002DA6FF002031EE081212720FFF774FF2B
:103510000346002B02DA6FF0030314E0FB790C4A38
:103520000121184600F018F80346002B02DA6FF06C
:10353000040308E0074B1B7CBA799A4201D10123AE
:1035400001E06FF0050318460837BD4680BD00BF97
:10355000880C0020780C002080B582B000AF0346B4
:103560003A60FB710B46BB718C212520FFF744FFAD
:103570000346002B02DA4FF0FF3326E0FB791946B1
:103580002620FFF739FF0346002B02DA6FF0010314
:103590001BE0BB7963F07F03DBB219462720FFF7FE
:1035A0002BFF0346002B02DA6FF002030DE001202F
:1035B00002F006FBBB793A6819464920FFF748FF3D
:1035C0000246044BDA60034BDB6818460837BD46F9
:1035D00080BD00BF780C002080B500AF074A0121F4
:1035E0007520FFF735FF0346002B02DA4FF0FF335B
:1035F00001E0034B1B7C184680BD00BF880C0020F7
:10360000780C002080B500AF074A01210020FFF7A9
:10361000A3FF0346002B02DA4FF0FF3301E0034B18
:103620001B7C184680BD00BF880C0020780C002051
:1036300080B400AF174B4FF07E521A60154B4FF01D
:1036400000025A60134B4FF000029A60114B4FF08A
:103650000002DA600F4B104A1A610E4B0F4A5A6192
:103660000C4B4FF07E529A610A4B4FF00002DA6128
:10367000084B4FF000021A62064B4FF000025A62EC
:10368000044B4FF000029A6200BFBD465DF8047B18
:10369000704700BFD80D00200000FA43CDCC4C3E4F
:1036A00090B5AFB000AF87ED090AC7ED080A87ED06
:1036B000071AC7ED061A87ED052AC7ED042A87ED1C
:1036C000033AC7ED023A87ED014AD7ED037AF5EEEA
:1036D000407AF1EE10FA1DD1D7ED027AF5EE407A7C
:1036E000F1EE10FA16D1D7ED017AF5EE407AF1EE4F
:1036F00010FA0FD1D7ED042A97ED052AD7ED061A57
:1037000097ED071AD7ED080A97ED090A00F0EEFECB
:1037100000F0E6BEE64BD3ED017AB1EE677AD7ED65
:10372000097A27EE277AE24BD3ED026AD7ED087AC1
:1037300066EEA77A37EE677ADD4BD3ED036AD7EDF5
:10374000077A66EEA77A77EE677AB6EE007A67EECA
:10375000877AC7ED2D7AD64B93ED007AD7ED097AAB
:1037600027EE277AD24BD3ED026AD7ED077A66EEC1
:10377000A77A37EE277ACE4BD3ED036AD7ED087AD6
:1037800066EEA77A77EE677AB6EE007A67EE877A0A
:10379000C7ED2C7AC64B93ED007AD7ED087A27EE69
:1037A000277AC34BD3ED016AD7ED077A66EEA77A85
:1037B00037EE677ABE4BD3ED036AD7ED097A66EE32
:1037C000A77A77EE277AB6EE007A67EE877AC7EDAA
:1037D0002B7AB74B93ED007AD7ED077A27EE277A4D
:1037E000B34BD3ED016AD7ED087A66EEA77A37EED0
:1037F000277AAF4BD3ED026AD7ED097A66EEA77A46
:1038000077EE677AB6EE007A67EE877AC7ED2A7AA6
:10381000D7ED067AF5EE407AF1EE10FA0ED1D7ED3B
:10382000057AF5EE407AF1EE10FA07D1D7ED047A79
:10383000F5EE407AF1EE10FA00F0B28597ED067AD7
:10384000D7ED067A27EE277AD7ED056AD7ED057A08
:1038500066EEA77A37EE277AD7ED046AD7ED047AB9
:1038600066EEA77A77EE277AB0EE670A01F074F970
:1038700087ED290A97ED067AD7ED297A67EE277A40
:10388000C7ED067A97ED057AD7ED297A67EE277AA4
:10389000C7ED057A97ED047AD7ED297A67EE277A96
:1038A000C7ED047A97ED037AD7ED037A27EE277AEE
:1038B000D7ED026AD7ED027A66EEA77A37EE277A5D
:1038C000D7ED016AD7ED017A66EEA77A77EE277A0F
:1038D000B0EE670A01F040F987ED290A97ED037A07
:1038E000D7ED297A67EE277AC7ED037A97ED027A4A
:1038F000D7ED297A67EE277AC7ED027A97ED017A3C
:10390000D7ED297A67EE277AC7ED017A684BD3EDB8
:10391000007A77EEA77A97ED037A67EE277AC7EDFC
:10392000287A634BD3ED007A77EEA77A97ED027A87
:1039300067EE277AC7ED277A5D4BD3ED007A77EEF5
:10394000A77A97ED017A67EE277AC7ED267A584B6A
:10395000D3ED017A77EEA77A97ED037A67EE277AAF
:10396000C7ED257A524BD3ED007A77EEA77AC7EDF3
:10397000247A4F4BD3ED017A77EEA77AC7ED237AFD
:103980004B4BD3ED027A77EEA77AC7ED227A484BFC
:10399000D3ED037A77EEA77AC7ED217A444BD3EDC6
:1039A000007A37EEA77A424BD3ED027A67EE277A98
:1039B000C7ED207A3E4BD3ED027A37EEA77A3C4B27
:1039C000D3ED037A67EE277AC7ED1F7A384B93ED74
:1039D000007A374BD3ED007A67EE277AC7ED1E7A6F
:1039E000334B93ED007A324BD3ED017A67EE277AB1
:1039F000C7ED1D7A2E4B93ED007A2D4BD3ED027A55
:103A000067EE277AC7ED1C7A294B93ED007A284B95
:103A1000D3ED037A67EE277AC7ED1B7A244B93ED3B
:103A2000017A234BD3ED017A67EE277AC7ED1A7A34
:103A30001F4B93ED017A1E4BD3ED027A67EE277A86
:103A4000C7ED197A1A4B93ED017A194BD3ED037A2E
:103A500067EE277AC7ED187A154B93ED027A144B6F
:103A6000D3ED027A67EE277AC7ED177A104B93ED04
:103A7000027A0F4BD3ED037A67EE277AC7ED167AF9
:103A80000B4B93ED037A0A4BD3ED037A67EE277A5B
:103A9000C7ED157A97ED037AD7ED1E7A27EE277AD0
:103AA000034BD3ED036AD7ED277A66EEA77A01E0E0
:103AB000D80D002037EE677AF44BD3ED026AD7EDCC
:103AC000267A66EEA77A37EE277AD7ED036AD7ED26
:103AD0001A7A66EEA77A37EE277AD7ED236AD7ED02
:103AE000027A66EEA76AE94BD3ED027A66EEA77A10
:103AF00037EE277AD7ED236AD7ED017A66EEA76A0B
:103B0000E24BD3ED037A66EEA77A37EE277AD7ED4C
:103B1000036AD7ED177A66EEA77A37EE677AD7EDA4
:103B2000036AD7ED157A66EEA77A77EE677AC7ED66
:103B3000147AD64B93ED037AD7ED287A27EE277ABD
:103B4000D7ED026AD7ED1E7A66EEA77A37EE277AAE
:103B5000CE4BD3ED016AD7ED267A66EEA77A37EE23
:103B6000677ACA4BD3ED026AD7ED257A66EEA77A5B
:103B700037EE277AD7ED026AD7ED1A7A66EEA77A82
:103B800037EE677AD7ED026AD7ED177A66EEA77A35
:103B900037EE277AD7ED226AD7ED017A66EEA76A6B
:103BA000BA4BD3ED037A66EEA77A37EE277AD7EDD4
:103BB000026AD7ED157A66EEA77A77EE677AC7EDD7
:103BC000137A97ED147AD7ED147A27EE277AD7ED8A
:103BD000136AD7ED137A66EEA77A77EE277A17EE97
:103BE000900AFCF7B1FC03460C4644EC103B08F08D
:103BF000CFFE54EC103B18462146FCF7F5FF034678
:103C0000BB64D7ED287AB1EE677AA04BD3ED027A88
:103C100027EE277A9D4BD3ED016AD7ED277A66EE22
:103C2000A77A37EE277AD7ED016AD7ED1E7A66EECE
:103C3000A77A37EE277A954BD3ED036AD7ED257A2D
:103C400066EEA77A37EE277AD7ED016AD7ED1A7AB2
:103C500066EEA77A37EE677AD7ED226AD7ED027A59
:103C600066EEA76A894BD3ED037A66EEA77A37EE44
:103C7000277AD7ED016AD7ED177A66EEA77A37EE85
:103C8000677AD7ED016AD7ED157A66EEA77A77EEF7
:103C9000277AC7ED117AD7ED127A77EEA77AC7EDBA
:103CA000107AD7ED117A77EEA77AC7ED0F7AD7EDB4
:103CB000227AB1EE677AD7ED187A77EEA76AD7ED58
:103CC000207A76EEE76AD7ED067A76EEE77A27EE87
:103CD000277AD7ED1D7A77EEA76AD7ED1F7A76EEB1
:103CE000A76AD7ED057A76EEE76AD7ED237A66EE16
:103CF000A77A37EE277A654BD3ED026AD7ED117AB2
:103D000066EEA76AB6EE006AD7ED177A36EE676AF6
:103D1000D7ED157A36EE676AD7ED127A26EE276A66
:103D2000D7ED185AD7ED1C7A75EEE75AD7ED117A10
:103D300065EEA77A36EE276AD7ED037A76EE677AD4
:103D400066EEA77A37EE677AD7ED127AF1EE676AF8
:103D50004E4BD3ED037A66EEA76A4C4B93ED016AA6
:103D6000D7ED117A66EE277A76EEA76A97ED196A93
:103D7000D7ED1B7A36EE676AD7ED127A26EE276A00
:103D8000D7ED1D5AD7ED167A75EEA75AD7ED117AF1
:103D900065EEA77A36EE276AD7ED027A76EE677A75
:103DA00066EEA77A37EE277A384BD3ED026AD7ED65
:103DB000127A66EEA76A97ED1C6AD7ED187A36EE8E
:103DC000276AD7ED127A26EE276AF6EE005AD7ED6B
:103DD0001A7A75EEE75AD7ED177A75EEE75AD7EDEE
:103DE000117A65EEA77A36EE276AD7ED017A76EE7C
:103DF000677A66EEA77A77EE277AC7ED0E7AD7ED67
:103E0000187A37EEA77AD7ED207A37EE677AD7EDB2
:103E1000067A37EE677AD7ED217A27EE277AD7ED43
:103E20001D7A77EEA76AD7ED1F7A76EEA76AD7EDEF
:103E3000057A76EEE76AD7ED247A66EEA77A37EE52
:103E4000277A124BD3ED017AF1EE006A67EEA66A8B
:103E5000D7ED1A7A77EEA77AB7EE006A36EE676A80
:103E6000D7ED177A77EEA77A36EE676AD7ED047A40
:103E700076EE677A66EEA77A37EE677A034BD3ED74
:103E8000036AD7ED117A66EEA76A01E0D80D00202B
:103E9000B6EE006AD7ED177A36EE676AD7ED157A77
:103EA00036EE676AD7ED127A26EE276AD7ED185AF2
:103EB000D7ED1C7A75EEE75AD7ED117A65EEA77A41
:103EC00036EE276AD7ED037A76EE677A66EEA77A42
:103ED00037EE277AF64BD3ED026AD7ED127A66EE0B
:103EE000A76AF34B93ED006AD7ED117A66EE277A55
:103EF00076EEA76A97ED196AD7ED1B7A36EE676AF8
:103F0000D7ED127A26EE276AD7ED1D5AD7ED167A2D
:103F100075EEA75AD7ED117A65EEA77A36EE276AC5
:103F2000D7ED027A76EE677A66EEA77A37EE277AD1
:103F3000DF4BD3ED036AD7ED127A66EEA76ADC4B4E
:103F400093ED016AD7ED0F7A66EE277A76EEE76A8F
:103F500097ED1C6AD7ED187A36EE276AD7ED127AFC
:103F600026EE276AF6EE005AD7ED1A7A75EEE75A72
:103F7000D7ED177A75EEE75AD7ED117A65EEA77A85
:103F800036EE276AD7ED017A76EE677A66EEA77A83
:103F900077EE277AC7ED0D7AD7ED247AB1EE677AFE
:103FA000D7ED187A77EEA76AD7ED207A76EEE76A32
:103FB000D7ED067A76EEE77A27EE277AD7ED1D7AE7
:103FC00077EEA76AD7ED1F7A76EEA76AD7ED057A66
:103FD00076EEE76AD7ED217A66EEA77A37EE277A92
:103FE000B34BD3ED027AF1EE006A67EEA66AD7ED25
:103FF0001A7A77EEA77AB7EE006A36EE676AD7EDDF
:10400000177A77EEA77A36EE676AD7ED047A76EEFE
:10401000677A66EEA77A37EE677AD7ED107AF1EE17
:10402000676AA34BD3ED027A66EEA76AA04B93EDC5
:10403000006AD7ED117A66EE277A76EEE76AB6EE79
:10404000006AD7ED177A36EE676AD7ED157A36EE45
:10405000676AD7ED127A26EE276AD7ED185AD7EDA0
:104060001C7A75EEE75AD7ED117A65EEA77A36EE2F
:10407000276AD7ED037A76EE677A66EEA77A37EE8F
:10408000277A8B4BD3ED016AD7ED127A66EEA76AD9
:10409000874B93ED036AD7ED117A66EE277A76EEB9
:1040A000A76A97ED196AD7ED1B7A36EE676AD7EDE6
:1040B000127A26EE276AD7ED1D5AD7ED167A75EEDD
:1040C000A75AD7ED117A65EEA77A36EE276AD7EDB3
:1040D000027A76EE677A66EEA77A37EE277A744B25
:1040E000D3ED006AD7ED127A66EEA76A704B93EDB6
:1040F000026AD7ED0F7A66EE277A76EEE76A97EDD9
:104100001C6AD7ED187A36EE276AD7ED127A26EEBA
:10411000276AF6EE005AD7ED1A7A75EEE75AD7ED10
:10412000177A75EEE75AD7ED117A65EEA77A36EE73
:10413000276AD7ED017A76EE677A66EEA77A77EE90
:10414000277AC7ED0C7AD7ED187A37EEA77AD7ED34
:10415000207A37EE677AD7ED067A37EE677AD7EDB1
:10416000237A27EE277AD7ED1D7A77EEA76AD7ED67
:104170001F7A76EEA76AD7ED057A76EEE76AD7ED75
:10418000227A66EEA77A37EE277AD7ED107AF1EE2B
:10419000676A474BD3ED037A66EEA76A444B93ED0B
:1041A000016AD7ED117A66EE277A76EEA76AB6EE47
:1041B000006AD7ED177A36EE676AD7ED157A36EED4
:1041C000676AD7ED127A26EE276AD7ED185AD7ED2F
:1041D0001C7A75EEE75AD7ED117A65EEA77A36EEBE
:1041E000276AD7ED037A76EE677A66EEA77A37EE1E
:1041F000277AD7ED127AF1EE676A2D4BD3ED007A6C
:1042000066EEA76A2A4B93ED026AD7ED117A66EE45
:10421000277A76EEA76A97ED196AD7ED1B7A36EE04
:10422000676AD7ED127A26EE276AD7ED1D5AD7EDC9
:10423000167A75EEA75AD7ED117A65EEA77A36EEA3
:10424000276AD7ED027A76EE677A66EEA77A37EEBE
:10425000277A174BD3ED016AD7ED127A66EEA76A7B
:1042600097ED1C6AD7ED187A36EE276AD7ED127AE9
:1042700026EE276AF6EE005AD7ED1A7A75EEE75A5F
:10428000D7ED177A75EEE75AD7ED117A65EEA77A72
:1042900036EE276AD7ED017A76EE677A66EEA77A70
:1042A00077EE277AC7ED0B7A97ED0E7A02E000BF22
:1042B000D80D0020D7ED0E7A27EE277AD7ED0D6ABC
:1042C000D7ED0D7A66EEA77A37EE277AD7ED0C6A2E
:1042D000D7ED0C7A66EEA77A37EE277AD7ED0B6A20
:1042E000D7ED0B7A66EEA77A77EE277AB0EE670AFB
:1042F00000F032FC87ED290A97ED0E7AD7ED297A86
:1043000067EE277AC7ED0E7A97ED0D7AD7ED297A09
:1043100067EE277AC7ED0D7A97ED0C7AD7ED297AFB
:1043200067EE277AC7ED0C7A97ED0B7AD7ED297AED
:1043300067EE277AC7ED0B7A6B4B93ED057AD7EDD5
:104340000E7A67EE277A97ED2D7A77EE677AC7EDCA
:104350002D7A654B93ED057AD7ED0D7A67EE277AC6
:1043600097ED2C7A77EE677AC7ED2C7A5E4B93ED5A
:10437000057AD7ED0C7A67EE277A97ED2B7A77EEF0
:10438000677AC7ED2B7A584B93ED057AD7ED0B7A08
:1043900067EE277A97ED2A7A77EE677AC7ED2A7A61
:1043A000514BD3ED047AF7EE006A86EEA77AD7ED8B
:1043B0002D7A27EE277A4C4BD3ED007A77EE277AC9
:1043C000494BC3ED007A484BD3ED047AF7EE006A0F
:1043D00086EEA77AD7ED2C7A27EE277A424BD3EDDB
:1043E000017A77EE277A404BC3ED017A3E4BD3ED4D
:1043F000047AF7EE006A86EEA77AD7ED2B7A27EEDD
:10440000277A394BD3ED027A77EE277A364BC3ED14
:10441000027A354BD3ED047AF7EE006A86EEA77A7E
:10442000D7ED2A7A27EE277A2F4BD3ED037A77EE52
:10443000277A2D4BC3ED037A2B4B93ED007A2A4B51
:10444000D3ED007A27EE277A274BD3ED016A264B6E
:10445000D3ED017A66EEA77A37EE277A224BD3EDB9
:10446000026A214BD3ED027A66EEA77A37EE277AFD
:104470001D4BD3ED036A1C4BD3ED037A66EEA77A8E
:1044800077EE277AB0EE670A00F066FB87ED290A1F
:10449000154B93ED007AD7ED297A67EE277A124B08
:1044A000C3ED007A104B93ED017AD7ED297A67EED0
:1044B000277A0D4BC3ED017A0B4B93ED027AD7EDC2
:1044C000297A67EE277A084BC3ED027A064B93ED03
:1044D000037AD7ED297A67EE277A034BC3ED037A87
:1044E000BC37BD4690BD00BFD80D002080B59CB044
:1044F00000AF87ED050AC7ED040A87ED031AC7ED83
:10450000021A87ED012AC7ED002AEE4BD3ED017A9E
:10451000B1EE677AD7ED057A27EE277AE94BD3ED2E
:10452000026AD7ED047A66EEA77A37EE677AE54B32
:10453000D3ED036AD7ED037A66EEA77A77EE677A52
:10454000B6EE007A67EE877AC7ED1B7ADD4B93ED06
:10455000007AD7ED057A27EE277ADA4BD3ED026A97
:10456000D7ED037A66EEA77A37EE277AD54BD3EDEF
:10457000036AD7ED047A66EEA77A77EE677AB6EE2D
:10458000007A67EE877AC7ED1A7ACE4B93ED007A00
:10459000D7ED047A27EE277ACA4BD3ED016AD7ED1F
:1045A000037A66EEA77A37EE677AC64BD3ED036AD5
:1045B000D7ED057A66EEA77A77EE277AB6EE007A1F
:1045C00067EE877AC7ED197ABE4B93ED007AD7ED87
:1045D000037A27EE277ABB4BD3ED016AD7ED047A35
:1045E00066EEA77A37EE277AB64BD3ED026AD7ED9F
:1045F000057A66EEA77A77EE677AB6EE007A67EE0E
:10460000877AC7ED187AD7ED027AF5EE407AF1EEA7
:1046100010FA0ED1D7ED017AF5EE407AF1EE10FAEC
:1046200007D1D7ED007AF5EE407AF1EE10FA00F0FE
:10463000ED8197ED027AD7ED027A27EE277AD7ED52
:10464000016AD7ED017A66EEA77A37EE277AD7EDC1
:10465000006AD7ED007A66EEA77A77EE277AB0EE99
:10466000670A00F079FA87ED170A97ED027AD7ED1D
:10467000177A67EE277AC7ED027A97ED017AD7EDC0
:10468000177A67EE277AC7ED017A97ED007AD7EDB2
:10469000177A67EE277AC7ED007A8A4BD3ED007A56
:1046A00077EEA77AC7ED167A864BD3ED017A77EECF
:1046B000A77AC7ED157A834BD3ED027A77EEA77A06
:1046C000C7ED147A7F4BD3ED037A77EEA77AC7ED67
:1046D000137A7C4BD3ED007AB1EE007A67EE877ADD
:1046E000C7ED127A774BD3ED017AB1EE007A67EE1F
:1046F000877AC7ED117A734BD3ED027AB1EE007A67
:1047000067EE877AC7ED107A6E4BD3ED017AB2EE81
:10471000007A67EE877AC7ED0F7A6A4BD3ED027A9B
:10472000B2EE007A67EE877AC7ED0E7A654B93EDAD
:10473000007A644BD3ED007A67EE277AC7ED0D7AE5
:10474000604B93ED017A5F4BD3ED017A67EE277AE8
:10475000C7ED0C7A5B4B93ED027A5A4BD3ED027A9C
:1047600067EE277AC7ED0B7A564B93ED037A554BDC
:10477000D3ED037A67EE277AC7ED0A7A97ED127ABE
:10478000D7ED0B7A27EE277AD7ED146AD7ED027AA8
:1047900066EEA77A37EE277AD7ED126AD7ED0C7A54
:1047A00066EEA77A37EE277AD7ED156AD7ED017A4C
:1047B00066EEA77A77EE677AC7ED097A97ED117AF8
:1047C000D7ED0A7A27EE277AD7ED136AD7ED027A6A
:1047D00066EEA77A37EE677AD7ED0D7AF1EE006ACA
:1047E00067EEA66A374BD3ED017A66EEA77A37EE0D
:1047F000277AD7ED166AD7ED017A66EEA77A37EEFB
:10480000677AD7ED117A37EE677AD7ED0F6AD7ED71
:104810000C7A66EEA77A37EE277AD7ED0F6AD7EDD6
:104820000B7A66EEA77A37EE277AD7ED116AD7EDC5
:10483000007A66EEA77A77EE277AC7ED087AD7ED89
:104840000D7AB1EE007A27EE877A1E4BD3ED027A0D
:1048500027EE277AD7ED166AD7ED027A66EEA77AA9
:1048600037EE277AD7ED106AD7ED0A7A66EEA77A87
:1048700037EE277AD7ED136AD7ED017A66EEA77A7D
:1048800037EE677AD7ED107A37EE677AD7ED0E6A92
:10489000D7ED0C7A66EEA77A37EE277AD7ED0E6A57
:1048A000D7ED0B7A66EEA77A37EE277AD7ED106A46
:1048B000D7ED007A66EEA77A77EE277AC7ED077A0A
:1048C00002E000BFD80D0020D7ED0C7AB1EE007ADF
:1048D00027EE877A9F4BD3ED037A27EE277AD7ED21
:1048E000156AD7ED027A66EEA77A37EE677AD7EDCA
:1048F0000B7AF1EE006A67EEA66A964BD3ED037A67
:1049000066EEA77A37EE277AD7ED146AD7ED017AEB
:1049100066EEA77A77EE677AC7ED067A97ED097AA1
:10492000D7ED097A27EE277AD7ED086AD7ED087A0E
:1049300066EEA77A37EE277AD7ED076AD7ED077AC2
:1049400066EEA77A37EE277AD7ED066AD7ED067AB4
:1049500066EEA77A77EE277AB0EE670A00F0FCF8E9
:1049600087ED170A97ED097AD7ED177A67EE277A60
:10497000C7ED097A97ED087AD7ED177A67EE277AAF
:10498000C7ED087A97ED077AD7ED177A67EE277AA1
:10499000C7ED077A97ED067AD7ED177A67EE277A93
:1049A000C7ED067A6B4B93ED057AD7ED097A67EE82
:1049B000277A97ED1B7A77EE677AC7ED1B7A654BFE
:1049C00093ED057AD7ED087A67EE277A97ED1A7A94
:1049D00077EE677AC7ED1A7A5E4B93ED057AD7EDDD
:1049E000077A67EE277A97ED197A77EE677AC7ED3F
:1049F000197A584B93ED057AD7ED067A67EE277A48
:104A000097ED187A77EE677AC7ED187A514BD3EDA8
:104A1000047AF7EE006A86EEA77AD7ED1B7A27EEC6
:104A2000277A4C4BD3ED007A77EE277A494BC3EDCA
:104A3000007A484BD3ED047AF7EE006A86EEA77A47
:104A4000D7ED1A7A27EE277A424BD3ED017A77EE2B
:104A5000277A404BC3ED017A3E4BD3ED047AF7EE53
:104A6000006A86EEA77AD7ED197A27EE277A394BB6
:104A7000D3ED027A77EE277A364BC3ED027A354BC7
:104A8000D3ED047AF7EE006A86EEA77AD7ED187AAE
:104A900027EE277A2F4BD3ED037A77EE277A2D4B2B
:104AA000C3ED037A2B4B93ED007A2A4BD3ED007ABA
:104AB00027EE277A274BD3ED016A264BD3ED017AF7
:104AC00066EEA77A37EE277A224BD3ED026A214BA6
:104AD000D3ED027A66EEA77A37EE277A1D4BD3ED37
:104AE000036A1C4BD3ED037A66EEA77A77EE277A3A
:104AF000B0EE670A00F030F887ED170A154B93ED1A
:104B0000007AD7ED177A67EE277A124BC3ED007A59
:104B1000104B93ED017AD7ED177A67EE277A0D4B9C
:104B2000C3ED017A0B4B93ED027AD7ED177A67EE5E
:104B3000277A084BC3ED027A064B93ED037AD7ED43
:104B4000177A67EE277A034BC3ED037A00BF7037FD
:104B5000BD4680BDD80D002080B487B000AF87ED82
:104B6000010AD7ED017AB6EE007A67EE877AC7EDD3
:104B7000057A7B683B6107F110031B68FB60FB68EB
:104B80005A10124B9B1AFB6007F10C031B683B6128
:104B900097ED047AD7ED057A27EE277AD7ED047AD8
:104BA00067EE277AB7EE087A37EE677AD7ED047AA0
:104BB00067EE277AC7ED047A3B6907EE903AB0EECC
:104BC000670A1C37BD465DF8047B7047DF59375FC5
:104BD00080B586B000AFF8607A601A460B46FB726B
:104BE0001346BB72FB7A43F04003DBB23B747B6835
:104BF0001B0EDBB27B747B681B0CDBB2BB747B6867
:104C00001B0ADBB2FB747B68DBB23B75BB7A7B753E
:104C100007F110014FF47A730622F86802F0F8FDEC
:104C20000346002B01D0012300E00023184618376B
:104C3000BD4680BD80B588B002AFF860B96013464C
:104C4000FB80FF23FB74FF23BB740023FB7517E07D
:104C500007F1120207F113014FF47A730093012355
:104C6000F86803F063F80346002B01D001232DE020
:104C7000FB7D0133FB75FB7D082B01D9022325E069
:104C8000BB7CFF2BE4D0BA7CBB681A700123BB82CB
:104C900017E007F1120207F113014FF47A73009342
:104CA0000123F86803F042F80346002B01D00123EA
:104CB0000CE0BB8ABA681344BA7C1A70BB8A013311
:104CC000BB82BA8AFB889A42E3D30023184618377E
:104CD000BD4680BD80B586B000AFF8607A601A46E8
:104CE0000B46FB721346BB7200224FF400714FF06B
:104CF000904001F013FABB7AF97A7A68F868FFF706
:104D000067FF0346FB75FB7D002B08D001224FF4A3
:104D100000714FF0904001F001FA012333E097F861
:104D200024309BB21A46396AF868FFF783FF0346BE
:104D3000FB75FB7D002B08D001224FF400714FF072
:104D4000904001F0EBF902231DE001224FF40071C5
:104D50004FF0904001F0E2F9FF23BB7507F1160117
:104D60004FF47A730122F86802F052FD0346002BDB
:104D700008D001224FF400714FF0904001F0CEF9BD
:104D8000032300E0002318461837BD4680BD80B5D8
:104D900088B002AFF8607A601A460B46FB72134681
:104DA000BB720023BB750123019307F11603009327
:104DB000652300223721F868FFF78CFF0346FB7557
:104DC000FB7D002B01D001231AE0BB7D03F0F4032F
:104DD000002B01DD022313E0BA7AF97A97F8243028
:104DE00001933B6A009313467A68F868FFF772FFF5
:104DF0000346FB75FB7D002B01D0032300E000235D
:104E000018461837BD4680BD80B58AB002AF7860BD
:104E100001224FF400714FF0904001F07FF90A2019
:104E200000F0CEFE8E4A07F10C0307CA03C31A80B6
:104E300007F10C014FF47A730A22786802F0E8FC5B
:104E40000346002B01D0012306E10123019307F162
:104E50000C0300939523002200217868FFF73AFFA6
:104E60000346FB77FB7F002B01D00123F4E03B7B63
:104E7000012B01D00223EFE00023BB7700237B77D7
:104E80000523019307F10C03009387234FF4D57298
:104E900008217868FFF71EFF0346FB77FB7F002B96
:104EA00001D00123BB773B7B012B01D00123BB77D2
:104EB000FB7B03F00F03012B02D13B7CAA2B01D01B
:104EC0000323C9E00023FB720023BB61BB7F002BDF
:104ED00048D10123FB7200F067FEB86121E000F0C9
:104EE00063FE0246BB69D31AB3F57A7F08D3012269
:104EF0004FF400714FF0904001F010F90423ABE043
:104F00000123019307F10B03009377234FF08042B5
:104F100029217868FFF73BFFFB7F002B01D0052399
:104F20009AE0FB7A002BDAD10523019307F10C03F9
:104F30000093752300223A217868FFF7CBFE0346E1
:104F4000FB77FB7F002B01D0062385E03B7B002B0A
:104F500001D0072380E07B7B03F00403002B01DDFD
:104F600001237B77BB7F012B2DD10123FB7200F046
:104F70001BFEB86124E000F017FE0246BB69D31A9D
:104F8000B3F57A7F0AD301224FF400714FF09040BD
:104F900001F0C4F80023FB720223BB7701230193C5
:104FA00007F10B030093FF23002229217868FFF704
:104FB000EEFEFB7F002B03D00023FB720223BB77A6
:104FC000FB7A002BD7D1BB7F022B29D10123FB72A7
:104FD00000F0EAFDB86120E000F0E6FD0246BB69A2
:104FE000D31AB3F57A7F08D301224FF400714FF042
:104FF000904001F093F808232EE00123019307F17C
:105000000B030093FF23002201217868FFF762FE63
:10501000FB7F002B01D009231EE0FB7A002BDBD1A4
:105020007B7F002B17D10123019307F10C03009321
:10503000FF234FF4007210217868FFF74BFE034600
:10504000FB77FB7F002B01D00A2305E03B7B002B85
:1050500001D00B2300E0002318462037BD4680BD59
:10506000FC11010880B58AB002AFF8607A603B603D
:105070000B46FB7200224FF400714FF0904001F09C
:105080004DF80023FB74F97AFF237A68F868FFF77C
:105090009FFD0346FB76FB7E002B08D001224FF4D8
:1050A00000714FF0904001F039F80123AAE007F1B8
:1050B000130301221946F868FFF7BCFD0346FB768F
:1050C000FB7E002B08D001224FF400714FF090407E
:1050D00001F024F8022395E0FB7C002B08D001228C
:1050E0004FF400714FF0904001F018F8032389E06D
:1050F00000F05AFD7861FF23BB74FF23FB741BE0B3
:1051000000F052FD02467B69D31AB3F57A7F08D3CB
:1051100001224FF400714FF0904000F0FFFF042394
:1051200070E007F1130207F112014FF47A73009354
:105130000123F86802F0FAFDFB7CFF2BE0D0FB7C3A
:10514000FE2B08D001224FF400714FF0904000F088
:10515000E5FF062356E00023FB831AE0FB8B3A6849
:105160001A4407F112014FF47A7300930123F8688F
:1051700002F0DCFD0346002B08D001224FF4007141
:105180004FF0904000F0CAFF07233BE0FB8B013358
:10519000FB83FA8B3B8D9A42E0D30023BB8319E05B
:1051A00007F1130207F112014FF47A730093012300
:1051B000F86802F0BBFD0346002B08D001224FF433
:1051C00000714FF0904000F0A9FF07231AE0BB8B5D
:1051D0000133BB83BB8B012BE2D901224FF4007159
:1051E0004FF0904000F09AFF07F112014FF47A73EC
:1051F0000122F86802F00CFB0346002B01D00923C2
:1052000000E0002318462037BD4680BD80B58AB037
:1052100002AFF860B9607A607B8000224FF40071C1
:105220004FF0904000F07AFF0023FB75FF23BA682F
:105230001821F868FFF7CCFC0346FB77FB7F002BB7
:1052400001D00123C8E007F1170301221946F868CD
:10525000FFF7F0FC0346FB77FB7F002B08D0012211
:105260004FF400714FF0904000F058FF0223B3E07C
:10527000FB7D002B08D001224FF400714FF09040CD
:1052800000F04CFF0323A7E0FF23FB7507F1170194
:105290004FF47A730122F86802F0BAFA0346002B41
:1052A00008D001224FF400714FF0904000F036FF1B
:1052B000042391E0FE23FB7507F117014FF47A7385
:1052C0000122F86802F0A4FA0346002B08D001225C
:1052D0004FF400714FF0904000F020FF05237BE079
:1052E0007A884FF47A737968F86802F091FA034685
:1052F000002B08D001224FF400714FF0904000F0D5
:105300000DFF062368E0364B1B88BB8207F11401B2
:105310004FF47A730222F86802F07AFA0346002BFF
:1053200008D001224FF400714FF0904000F0F6FEDB
:10533000072351E007F1170301221946F868FFF728
:1053400079FC0346FB77FB7F002B08D001224FF44A
:1053500000714FF0904000F0E1FE08233CE0FB7D3F
:1053600003F01F03052B08D001224FF400714FF00A
:10537000904000F0D3FE09232EE000F015FCB86148
:10538000FF23FB740023FB751BE000F00DFC0246BD
:10539000BB69D31AB3F57A7F08D301224FF40071A9
:1053A0004FF0904000F0BAFE0A2315E007F1170213
:1053B00007F113014FF47A7300930123F86802F0A8
:1053C000B5FCFB7D002BE0D001224FF400714FF0C3
:1053D000904000F0A3FE002318462037BD4680BD54
:1053E0000812010880B586B002AFF860B9607A6033
:1053F0007B807B8800937B68BA681121F868FFF78F
:1054000031FE034618461037BD4680BD80B58EB0CC
:1054100002AFF860B9607A6007F1140210230093BC
:10542000134600220921F868FFF71CFE034687F89F
:105430002F3097F82F30002B02D097F82F3052E002
:105440003B7D9B0987F82E300023BB62002387F841
:105450002730002387F8263097F82E30002B2ED1E6
:105460007B7E03F00F0387F82630BB7E1B0403F41A
:105470004032FB7E1B0213433A7F13439B11BB62F6
:105480007B7F1B0203F44073BA7F1343DB1187F861
:10549000273097F82630012202FA03F39AB2BB684C
:1054A0001A80BB6A5A1C97F82730023302FA03F3BA
:1054B000BA68128802FB03F27B681A6012E0FB7E76
:1054C0001B0403F47C123B7F1B0213437A7F1343BC
:1054D000BB62BB684FF400721A80BB6A0133DA0406
:1054E0007B681A60002318463037BD4680BD000037
:1054F00080B582B000AF0346FB710022102107483F
:1055000000F00CFE064B1868F91D0A23012202F078
:105510007FF900BF0837BD4680BD00BF00040048CA
:105520001C00002080B582B000AF0346FB71012251
:105530001021074800F0F2FD064B1868F91D0A23F8
:10554000012202F065F900BF0837BD4680BD00BFEB
:10555000000400481C00002080B582B000AF034664
:10556000FB80FB881B0A9BB21AB2FB881B021BB292
:1055700013431BB29BB2FB8001221021064800F0AE
:10558000CDFD064B1868B91D0A23022202F040F92E
:1055900000BF0837BD4680BD000400481C00002045
:1055A00080B500AF012240210B4800F0B7FD32204A
:1055B00000F006FB00224021074800F0AFFD0A2062
:1055C00000F0FEFA01224021034800F0A7FD9620DA
:1055D00000F0F6FA00BF80BD0004004880B582B03C
:1055E00000AF0346FB713620FFF782FFFB7903F023
:1055F0000303FB71FB79032B3AD801A252F823F085
:10560000115600082956000841560008595600084E
:10561000C020FFF787FF184B1A78184B1A70184BE9
:105620001A78184B1A7023E0A020FFF77BFF124B6B
:105630001A78144B1A70124B1A78104B1A7017E024
:105640000020FFF76FFF0C4B1A780C4B1A700C4BB5
:105650001A780C4B1A700BE06020FFF763FF064BC3
:105660001A78084B1A70064B1A78044B1A7000BF50
:1056700000BF0837BD4680BD0B0E0020060E00207F
:105680000A0E0020070E002080B500AF194B002243
:105690001A70184B1A78184B1A70184B00221A708F
:1056A000164B1A78164B1A70164BF0221A80164BAE
:1056B000F0221A80FFF774FF3620FFF719FF002051
:1056C000FFF730FF3A20FFF713FF0520FFF72AFF0F
:1056D0002120FFF70DFF1120FFF70AFF1320FFF72E
:1056E00007FF2920FFF704FF0220FFF777FF00BF25
:1056F00080BD00BF060E00200B0E00200A0E002009
:10570000070E0020080E0020040E002090B585B082
:1057100000AF0446084611461A462346FB8003465E
:10572000BB800B467B8013463B801A4B1B789AB29A
:10573000FB881344FB81174B1B789AB27B88134478
:10574000BB81154B1B789AB2BB8813447B81124BEB
:105750001B789AB23B8813443B812A20FFF7C8FE8E
:10576000FB891846FFF7F8FEBB891846FFF7F4FEE1
:105770002B20FFF7BDFE7B891846FFF7EDFE3B8926
:105780001846FFF7E9FE2C20FFF7B2FE00BF1437E2
:10579000BD4690BD060E0020070E002090B585B0D6
:1057A00000AF0446084611461A462346FB800346CE
:1057B000BB800B467B8013463B80FA887B88134472
:1057C000274A1288934204DD254B1A88FB88D31A96
:1057D0007B80BA883B881344224A1288934204DDB6
:1057E000204B1A88BB88D31A3B80FA887B881344E5
:1057F0009BB2013B9CB2BA883B8813449BB2013BED
:105800009BB2B988F8882246FFF780FF0122102159
:10581000154800F083FC3B8C1B0A9BB21AB23B8CF0
:105820001B021BB213431BB29BB27B810023FB60A4
:105830000AE00E4B186807F10A010A23022201F060
:10584000E7FFFB680133FB607B883A8802FB03F2C9
:10585000FB689A42EDD800BF1437BD4690BD00BF2B
:10586000080E0020040E0020000400481C00002048
:1058700090B585B002AF0346FB80094B1B7898B208
:10588000084B1B7899B2084B1A88084B1C88FB8878
:1058900000932346FFF782FF00BF0C37BD4690BD43
:1058A000060E0020070E0020080E0020040E002027
:1058B00090B58BB000AF7B600346FB810B46BB818C
:1058C0001346FB72FB7A203B7A68D28802FB03F313
:1058D0007A689288D20892B211467A68928802F069
:1058E000070292B2002A14BF01220022D2B20A4457
:1058F00002FB03F3BB617B681A68BB6913447B62DC
:105900007B689A88FB8913449BB2013B9CB27B68FD
:10591000DA88BB8913449BB2013B9BB2B989F889F1
:105920002246FFF7F3FE01221021374800F0F6FB74
:10593000BB8F1B0A9BB21AB2BB8F1B021BB2134355
:105940001BB29BB2FB823B8F1B0A9BB21AB23B8FEE
:105950001B021BB213431BB29BB2BB8200233B62F0
:1059600047E00023FB6131E07B6A1B781946FB6945
:105970005A4203F0070302F0070258BF5342802245
:1059800042FA03F30B40002B08D0204B186807F1B4
:1059900016010A23022201F03BFF07E01B4B1868A7
:1059A00007F114010A23022201F032FFFB695A4277
:1059B00003F0070302F0070258BF5342072B02D13E
:1059C0007B6A01337B62FB690133FB617B689B88E7
:1059D0001A46FB699342C7DB7B689B8803F0070389
:1059E0009BB2002B02D07B6A01337B623B6A01339E
:1059F0003B627B68DB881A463B6A9342B1DB00BF9F
:105A00002C37BD4690BD00BF000400481C0000209C
:105A100080B588B002AFBA607B600346FB810B465D
:105A2000BB81FB89FB82BB89BB822DE0FB8A7A6844
:105A300092881344184A1288934206DDFB89FB8240
:105A40007B68DA88BB8A1344BB82BB8A7A68D288B7
:105A50001344124A1288934203DDFB89FB82BB89FF
:105A6000BB82BB681A78B98AF88ABB8C01933B8CDD
:105A700000937B68FFF71CFFBB680133BB607B684A
:105A80009A88FB8A1344FB82BB681B78002BCDD11C
:105A900000BF1837BD4680BD080E0020040E002050
:105AA000DFF834D0002103E00C4B5B584350043145
:105AB0000B480C4B42189A42F6D30B4A02E00023E3
:105AC00042F8043B094B9A42F9D3FCF7BFFB07F0BD
:105AD00015FDFCF721F9FEE700A00020F0450108C4
